{
  "_format": "hh-sol-artifact-1",
  "contractName": "KeyManager",
  "sourceName": "contracts/KeyManager.sol",
  "abi": [
    {
      "anonymous": false,
      "inputs": [
        {
          "indexed": false,
          "internalType": "uint256",
          "name": "id",
          "type": "uint256"
        },
        {
          "indexed": false,
          "internalType": "string",
          "name": "ipfsHash",
          "type": "string"
        },
        {
          "indexed": true,
          "internalType": "address",
          "name": "owner",
          "type": "address"
        }
      ],
      "name": "KeyAdded",
      "type": "event"
    },
    {
      "anonymous": false,
      "inputs": [
        {
          "indexed": false,
          "internalType": "uint256",
          "name": "id",
          "type": "uint256"
        },
        {
          "indexed": true,
          "internalType": "address",
          "name": "owner",
          "type": "address"
        }
      ],
      "name": "KeyDeleted",
      "type": "event"
    },
    {
      "anonymous": false,
      "inputs": [
        {
          "indexed": false,
          "internalType": "uint256",
          "name": "id",
          "type": "uint256"
        },
        {
          "indexed": false,
          "internalType": "string",
          "name": "ipfsHash",
          "type": "string"
        },
        {
          "indexed": true,
          "internalType": "address",
          "name": "owner",
          "type": "address"
        }
      ],
      "name": "KeyUpdated",
      "type": "event"
    },
    {
      "inputs": [
        {
          "internalType": "string",
          "name": "_ipfsHash",
          "type": "string"
        }
      ],
      "name": "addKey",
      "outputs": [],
      "stateMutability": "nonpayable",
      "type": "function"
    },
    {
      "inputs": [],
      "name": "getMyKeys",
      "outputs": [
        {
          "components": [
            {
              "internalType": "uint256",
              "name": "id",
              "type": "uint256"
            },
            {
              "internalType": "string",
              "name": "ipfsHash",
              "type": "string"
            },
            {
              "internalType": "bool",
              "name": "isDeleted",
              "type": "bool"
            }
          ],
          "internalType": "struct KeyManager.Key[]",
          "name": "",
          "type": "tuple[]"
        }
      ],
      "stateMutability": "view",
      "type": "function"
    },
    {
      "inputs": [
        {
          "internalType": "uint256",
          "name": "_id",
          "type": "uint256"
        }
      ],
      "name": "softDeleteKey",
      "outputs": [],
      "stateMutability": "nonpayable",
      "type": "function"
    },
    {
      "inputs": [
        {
          "internalType": "uint256",
          "name": "_id",
          "type": "uint256"
        },
        {
          "internalType": "string",
          "name": "_ipfsHash",
          "type": "string"
        }
      ],
      "name": "updateKey",
      "outputs": [],
      "stateMutability": "nonpayable",
      "type": "function"
    }
  ],
  "bytecode": "0x608060405234801561001057600080fd5b50610b15806100206000396000f3fe608060405234801561001057600080fd5b506004361061004c5760003560e01c8063309e89981461005157806330d1ab4e1461006657806350382c1a1461007957806395adb31e1461008c575b600080fd5b61006461005f366004610601565b6100aa565b005b610064610074366004610663565b61018f565b6100646100873660046106af565b61032e565b6100946104eb565b6040516100a191906106f1565b60405180910390f35b336000908152602081905260409020548190811061010f5760405162461bcd60e51b815260206004820152601f60248201527f4b65794d616e616765723a204b657920646f6573206e6f74206578697374210060448201526064015b60405180910390fd5b33600090815260208190526040902080546001919084908110610134576101346107b0565b6000918252602091829020600390910201600201805460ff19169215159290921790915560405183815233917f22d144fcce41d77d62406895c49c8544d3934c39d6b19027238c499088dfe18c910160405180910390a25050565b8181602e81146101b15760405162461bcd60e51b8152600401610106906107c6565b336000908152600160205260409081902090516101d1908490849061080e565b9081526040519081900360200190205460ff16156102015760405162461bcd60e51b81526004016101069061081e565b33600090815260208190526040902054859081106102615760405162461bcd60e51b815260206004820152601f60248201527f4b65794d616e616765723a204b657920646f6573206e6f7420657869737421006044820152606401610106565b33600090815260208190526040902080548691869189908110610286576102866107b0565b906000526020600020906003020160010191826102a4929190610901565b503360009081526001602081905260409182902091519091906102ca908890889061080e565b908152604051908190036020018120805492151560ff199093169290921790915533907f7ece098c095ee332b9644942b9f55349da1606cfca8e9b971f0d995e79ea38159061031e908990899089906109c2565b60405180910390a2505050505050565b8181602e81146103505760405162461bcd60e51b8152600401610106906107c6565b33600090815260016020526040908190209051610370908490849061080e565b9081526040519081900360200190205460ff16156103a05760405162461bcd60e51b81526004016101069061081e565b33600090815260208181526040918290208251606081018452815481528351601f880184900484028101840190945286845290929091828101919088908890819084018382808284376000920182905250938552505050602091820181905283546001818101865594825290829020835160039092020190815590820151919290919082019061043090826109f8565b50604091820151600291909101805460ff19169115159190911790553360009081526001602081905290829020915190919061046f908790879061080e565b9081526040805160209281900383019020805460ff19169315159390931790925533600081815291829052919020547f3afe71b7f68b8e8f83893984b31db0d54894273eacf3d1022718ce0ef52776f7906104cc90600190610ab8565b86866040516104dd939291906109c2565b60405180910390a250505050565b33600090815260208181526040808320805482518185028101850190935280835260609492939192909184015b828210156105f857838290600052602060002090600302016040518060600160405290816000820154815260200160018201805461055590610878565b80601f016020809104026020016040519081016040528092919081815260200182805461058190610878565b80156105ce5780601f106105a3576101008083540402835291602001916105ce565b820191906000526020600020905b8154815290600101906020018083116105b157829003601f168201915b50505091835250506002919091015460ff1615156020918201529082526001929092019101610518565b50505050905090565b60006020828403121561061357600080fd5b5035919050565b60008083601f84011261062c57600080fd5b50813567ffffffffffffffff81111561064457600080fd5b60208301915083602082850101111561065c57600080fd5b9250929050565b60008060006040848603121561067857600080fd5b83359250602084013567ffffffffffffffff81111561069657600080fd5b6106a28682870161061a565b9497909650939450505050565b600080602083850312156106c257600080fd5b823567ffffffffffffffff8111156106d957600080fd5b6106e58582860161061a565b90969095509350505050565b60006020808301818452808551808352604092508286019150828160051b8701018488016000805b848110156107a157603f198a8503018652825160608151865289820151818b880152805180838901528592505b80831015610764578183018c015188840160800152918b0191610746565b608092508583828a0101528a84015193506107828b89018515159052565b988b0198601f01601f1916969096010194505091870191600101610719565b50919998505050505050505050565b634e487b7160e01b600052603260045260246000fd5b60208082526028908201527f4b65794d616e6765723a2041637475616c204950465320686173682069732072604082015267657175697265642160c01b606082015260800190565b8183823760009101908152919050565b60208082526024908201527f4b65794d616e6765723a2049504653206861736820616c7265616479206578696040820152637374732160e01b606082015260800190565b634e487b7160e01b600052604160045260246000fd5b600181811c9082168061088c57607f821691505b6020821081036108ac57634e487b7160e01b600052602260045260246000fd5b50919050565b601f8211156108fc57600081815260208120601f850160051c810160208610156108d95750805b601f850160051c820191505b818110156108f8578281556001016108e5565b5050505b505050565b67ffffffffffffffff83111561091957610919610862565b61092d836109278354610878565b836108b2565b6000601f84116001811461096157600085156109495750838201355b600019600387901b1c1916600186901b1783556109bb565b600083815260209020601f19861690835b828110156109925786850135825560209485019460019092019101610972565b50868210156109af5760001960f88860031b161c19848701351681555b505060018560011b0183555b5050505050565b83815260406020820152816040820152818360608301376000818301606090810191909152601f909201601f1916010192915050565b815167ffffffffffffffff811115610a1257610a12610862565b610a2681610a208454610878565b846108b2565b602080601f831160018114610a5b5760008415610a435750858301515b600019600386901b1c1916600185901b1785556108f8565b600085815260208120601f198616915b82811015610a8a57888601518255948401946001909101908401610a6b565b5085821015610aa85787850151600019600388901b60f8161c191681555b5050505050600190811b01905550565b81810381811115610ad957634e487b7160e01b600052601160045260246000fd5b9291505056fea2646970667358221220d5b8796aa54d3d7503705ba47637f3c4352fc2195a36822a47c6f8264126cb9464736f6c63430008140033",
  "linkReferences": {},
  "deployedLinkReferences": {}
}